:020000040800F2
:1000000000500020850B0008A50A0008AB0A000874
:10001000B10A0008B70A0008BD0A00080000000085
:1000200000000000000000000000000091570008E0
:10003000C30A00080000000071590008B9590008FF
:10004000CD0B0008CD0B0008CD0B0008CD0B000830
:10005000CD0B0008CD0B0008CD0B0008CD0B000820
:10006000CD0B0008CD0B0008CD0B0008CD0B000810
:10007000CD0B0008CD0B0008CD0B0008CD0B000800
:10008000CD0B0008CD0B0008CD0B0008CD0B0008F0
:10009000CD0B0008CD0B0008CD0B0008CD0B0008E0
:1000A000CD0B0008D10A0008CD0B0008CD0B0008CD
:1000B000CD0B0008CD0B0008CD0B0008CD0B0008C0
:1000C000CD0B0008CD0B0008CD0B0008CD0B0008B0
:1000D000CD0B0008CD0B0008E50A0008CD0B000889
:1000E000F90A0008CD0B0008CD0B00080000000045
:1000F0000000000000000000000000000000000000
:0C01000000000000000000005FF808F1A3
:1001100010B5054C237833B9044B13B10448AFF341
:1001200000800123237010BD740000200000000037
:10013000EC5F000808B5034B1BB103490348AFF35C
:10014000008008BD0000000078000020EC5F00087F
:1001500080B500AF064B1B680021184603F094FBE6
:10016000044B1B680021184603F08EFB00BF80BDC6
:10017000041C0020101C002080B500AF00F028FDFA
:1001800000F07CF800F0ECF800F0BEF802F012FC91
:10019000244802F04DFD0346234A1360234A0421FC
:1001A000042002F0DFFD0346214A1360214A0421A6
:1001B000042002F0D7FD03461F4A13601F4A07219F
:1001C000042002F06BFE03461D4A13601D4A0721FE
:1001D000042002F063FE03461B4A13601B4A002101
:1001E0001B4802F04DFC03461A4A13601A4A0021CC
:1001F0001A4802F045FC0346194A1360194A0021C7
:10020000194802F03DFC0346184A1360184A0021C1
:10021000184802F035FC0346174A136002F0FCFB55
:10022000FEE700BF606100080C1C00207061000840
:10023000041C002080610008101C002030610008B0
:10024000181C002048610008141C0020A060000851
:100250003D040008FC1B0020C460000809060008DB
:10026000001C0020E860000889060008081C002027
:100270000C610008E5070008601C002080B590B004
:1002800000AF07F1180328220021184605F030FEC0
:100290003B1D00221A605A609A60DA601A610123DD
:1002A000BB614FF4A023FB6100233B620123BB62CF
:1002B00002237B634FF48033BB634FF4E013FB6393
:1002C00007F11803184600F0C9FF0346002B01D0C0
:1002D00000F002FB0F237B600223BB600023FB6066
:1002E0004FF480633B6100237B613B1D0221184674
:1002F00001F034FA0346002B01D000F0EDFA00BF04
:100300004037BD4680BD000080B500AF124B134A98
:100310001A60114B4FF4E1325A600F4B00229A6081
:100320000D4B0022DA600C4B00221A610A4B0C22A2
:100330005A61094B00229A61074B0022DA61064B91
:1003400000221A62044801F01DFE0346002B01D072
:1003500000F0C2FA00BF80BD1C1C00200044004019
:1003600080B588B000AF07F1100300221A605A6010
:100370009A60DA602D4B9B692C4A43F0100393611D
:100380002A4B9B6903F01003FB60FB68274B9B69BA
:10039000264A43F020039361244B9B6903F020031A
:1003A000BB60BB68214B9B69204A43F00403936107
:1003B0001E4B9B6903F004037B607B681B4B9B69AE
:1003C0001A4A43F008039361184B9B6903F0080332
:1003D0003B603B6800222021154800F005FF4FF4E8
:1003E00000533B61134B7B610023BB6107F110039A
:1003F0001946114800F074FD20233B6101237B6105
:100400000123BB610323FB6107F110031946084870
:1004100000F066FD00220521282000F0C0FC282005
:1004200000F0D9FC00BF2037BD4680BD001002405F
:1004300000080140000011100010014080B584B098
:1004400000AF7860072005F03DFD0346FB60FB68C8
:1004500001229A71694B1B684FF0FF31184603F077
:1004600081FB664B1B684FF0FF31184603F07AFBA7
:10047000624B1B684FF0FF31184603F073FB5F4B74
:100480001B684FF0FF31184603F06CFBFB6800223D
:100490001A70FB6800225A70FB6800229A70FB6891
:1004A0000022DA70FB6800221A71FB6800225A7180
:1004B000524B1B684FF0FF31184603F053FB504B73
:1004C00001221A604D4B1B684FF4FA71184603F075
:1004D00049FB0346002B3DD1FB689B79013B052B73
:1004E00076D801A252F823F0010500080F05000894
:1004F0001D0500082B050008390500084705000800
:10050000FB6801221A70FB6802229A7160E0FB68A6
:1005100001225A70FB6803229A7159E0FB6801229C
:100520009A70FB6804229A7152E0FB680122DA702B
:10053000FB6805229A714BE0FB6801221A71FB6887
:1005400006229A7144E0FB6801225A71FB68072277
:100550009A713DE0FB689B79013B052B38D801A2DD
:1005600052F823F07D0500088B0500089905000866
:10057000A7050008B5050008C3050008FB680222AE
:100580001A70FB6802229A7122E0FB6802225A70FC
:10059000FB6803229A711BE0FB6802229A70FB68D9
:1005A00004229A7114E0FB680222DA70FB680522CB
:1005B0009A710DE0FB6802221A71FB6806229A719B
:1005C00006E0FB6802225A71FB6807229A7100BF9D
:1005D0000A4B1B684FF47A71184603F0C3FA0346BE
:1005E000002B7FF46CAF074B186800234FF0FF32ED
:1005F000F96802F0B3FF00BF48E700BF041C002009
:1006000090000020141C002080B582B000AF7860FC
:100610001A4B1B684FF0FF31184603F0A3FA174B33
:100620001B684FF0FF31184603F09CFA134B1B6810
:100630004FF0FF31184603F095FA104B1B684FF04E
:10064000FF31184603F08EFA0C4B1B684FF0FF3158
:10065000184603F087FA0A4B02221A600122202171
:10066000084800F0C1FD4FF4FA7002F0B3FA00221E
:100670002021044800F0B8FDE6E700BF101C002070
:10068000900000200008014080B586B000AF78607F
:10069000072005F017FC03463B614D4A07F10803AC
:1006A00092E803001860043319804A4B03221A6051
:1006B000494B1B684FF0FF323969184603F072F955
:1006C0000023FB755FE0FB7D013B052B50D801A2A9
:1006D00052F823F0ED060008030700081907000888
:1006E0002F070008450700085B0700083B691A78D8
:1006F000FB7D3032D2B207F118010B4403F8102C05
:1007000036E03B695A78FB7D3032D2B207F11801EE
:100710000B4403F8102C2BE03B699A78FB7D3032B8
:10072000D2B207F118010B4403F8102C20E03B690A
:10073000DA78FB7D3032D2B207F118010B4403F8AE
:10074000102C15E03B691A79FB7D3032D2B207F1EB
:1007500018010B4403F8102C0AE03B695A79FB7D21
:100760003032D2B207F118010B4403F8102C00BF4D
:10077000FB7D07F11802134413F8103C002B06D040
:10078000FB7D0133FB75FB7D062B9CD900E000BF90
:100790000023FB73114B1B684FF0FF31184603F029
:1007A000E1F907F10803062219460D4801F02BFC78
:1007B00000BF0B4801F0FEFD0346122BF9D0074B9A
:1007C000186800230022002102F0C8FE6DE700BF78
:1007D0007060000890000020141C00200C1C0020F9
:1007E0001C1C002080B58AB000AF78602D4B1B68C0
:1007F0004FF0FF31184603F0B5F92B4B04221A6075
:10080000284B1B684FF0FF31184603F0ABF907F196
:100810000C0306221946254801F039FC00BF234885
:1008200001F0C8FD0346222BF9D01E4B18680023A7
:100830000022002102F092FE002387F827302CE0EE
:1008400097F827309B0007F12802134453F81C3C0B
:10085000303B012B0ED101222021154800F0C4FCB1
:100860004FF4FA7002F0B6F900222021104800F08F
:10087000BBFC0DE0012220210D4800F0B5FC4FF437
:100880007A7002F0A7F900222021094800F0ACFCA0
:1008900097F82730013387F8273097F82730062B51
:1008A000CED9AAE70C1C0020900000201C1C0020C0
:1008B0000008014080B582B000AF78607B681B689B
:1008C000044A934201D100F099F900BF0837BD46B0
:1008D00080BD00BF002C014080B400AF72B600BFE5
:1008E000FEE7000080B584B000AF184B9B69174A43
:1008F00043F001039361154B9B6903F00103BB6057
:10090000BB68124BDB69114A43F08053D3610F4B34
:10091000DB6903F080537B607B6800220F216FF05E
:10092000010000F03CFA0A4B5B68FB60FB6823F0B7
:10093000E063FB60FB6843F00073FB60044AFB6804
:10094000536000BF1037BD4680BD00BF001002409D
:100950000000014080B588B000AF786007F1100357
:1009600000221A605A609A60DA607B681B681F4A2E
:10097000934237D11E4BDB691D4A43F40033D361E8
:100980001B4BDB6903F40033FB60FB68184B9B696E
:10099000174A43F004039361154B9B6903F004036A
:1009A000BB60BB680C233B6102237B610223FB61BC
:1009B00007F1100319460F4800F092FA10233B612B
:1009C00002237B610323FB6107F1100319460948E9
:1009D00000F086FA00220521262000F0E0F926200A
:1009E00000F0F9F900BF2037BD4680BD004400404B
:1009F000001002400008014080B58CB000AF786064
:100A00000023FB620023BB6200227968192000F0FA
:100A1000C6F9192000F0DFF91E4B9B691D4A43F40B
:100A2000006393611B4B9B6903F40063FB60FB68ED
:100A300007F1100207F114031146184601F00AF8F5
:100A400000F0F4FFF862FB6A134AA2FB03239B0C3D
:100A5000013BBB62114B124A1A60104B40F2E73265
:100A6000DA600E4ABB6A53600C4B00221A610B4BD2
:100A700000229A60094801F03BF80346002B04D19C
:100A8000064801F08DF8034600E001231846303790
:100A9000BD4680BD0010024083DE1B43641C002065
:100AA000002C014080B400AFFEE780B400AFFEE749
:100AB00080B400AFFEE780B400AFFEE780B400AFC3
:100AC000FEE780B400AF00BFBD4680BC70470000A9
:100AD00080B500AF024801F0B5F800BF80BD00BF8F
:100AE000641C002080B500AF024801F021FB00BF6C
:100AF00080BD00BF1C1C002080B500AFFFF728FBA5
:100B00004FF4005000F088FB00BF80BD80B586B078
:100B100000AF7860144A154BD31A7B617B693B6147
:100B2000134B1B68002B02D1114B124A1A60104B59
:100B30001A687B6813443A699A4207D205F096F91D
:100B400003460C221A604FF0FF3309E0084B1B6884
:100B5000FB60074B1A687B681344054A1360FB6807
:100B600018461837BD4680BD005000200004000024
:100B700094000020001D002080B400AF00BFBD46DF
:100B800080BC70470C480D490D4A002302E0D45840
:100B9000C4500433C4188C42F9D30A4A0A4C0023C7
:100BA00001E013600432A242FBD3FFF7E5FF05F03A
:100BB00063F9FFF7E1FA704700000020740000209D
:100BC0001062000874000020001D0020FEE70000F5
:100BD00080B500AF084B1B68074A43F01003136051
:100BE000032000F0D1F80F20FFF706FFFFF77AFE91
:100BF0000023184680BD00BF0020024080B400AF33
:100C0000054B1B781A46054B1B681344034A1360B7
:100C100000BFBD4680BC704708000020AC1C00200F
:100C200080B400AF024B1B681846BD4680BC7047BD
:100C3000AC1C002080B485B000AF78607B6803F006
:100C40000703FB600C4BDB68BB60BA684FF6FF0321
:100C50001340BB60FB681A02BB68134343F0BF63D9
:100C600043F40033BB60044ABB68D36000BF143751
:100C7000BD4680BC704700BF00ED00E080B400AF0F
:100C8000044BDB681B0A03F007031846BD4680BC13
:100C9000704700BF00ED00E080B483B000AF0346B2
:100CA000FB7197F90730002B0BDBFB7903F01F0278
:100CB000064997F907305B09012000FA02F241F872
:100CC000232000BF0C37BD4680BC704700E100E028
:100CD00080B483B000AF03463960FB7197F90730E9
:100CE000002B0ADB3B68DAB20C4997F90730120196
:100CF000D2B20B4483F800230AE03B68DAB2084919
:100D0000FB7903F00F03043B1201D2B20B441A76B5
:100D100000BF0C37BD4680BC704700BF00E100E05B
:100D200000ED00E080B489B000AFF860B9607A608F
:100D3000FB6803F00703FB61FB69C3F10703042BA6
:100D400028BF0423BB61FB690433062B02D9FB696E
:100D5000033B00E000237B614FF0FF32BB6902FAE6
:100D600003F3DA43BB681A407B699A404FF0FF31C6
:100D70007B6901FA03F3D9437B680B4013431846A0
:100D80002437BD4680BC704780B582B000AF786024
:100D90007868FFF74FFF00BF0837BD4680BD80B5BC
:100DA00086B000AF0346B9607A60FB7300237B61B5
:100DB000FFF764FF78617A68B9687869FFF7B2FF76
:100DC000024697F90F3011461846FFF781FF00BF22
:100DD0001837BD4680BD80B582B000AF0346FB71B9
:100DE00097F907301846FFF757FF00BF0837BD4691
:100DF00080BD000080B584B000AF78600023FB7335
:100E00007B6893F82130022B05D07B6804229A631B
:100E10000123FB7351E07B681B681A687B681B68C1
:100E200022F00E021A607B681B681A687B681B68D8
:100E300022F001021A607B681B68224A934229D083
:100E40007B681B68204A934222D07B681B681F4A3C
:100E500093421AD07B681B681D4A934212D07B686C
:100E60001B681C4A93420AD07B681B681A4A93424B
:100E700002D14FF480130EE04FF080730BE04FF47B
:100E8000803308E04FF4805305E04FF4807302E0B4
:100E9000102300E00123114A53607B68012283F88C
:100EA00021207B68002283F820207B685B6B002B6D
:100EB00003D07B685B6B78689847FB7B18461037DC
:100EC000BD4680BD080002401C00024030000240C8
:100ED00044000240580002406C0002400000024002
:100EE00080B48BB000AF7860396000237B62002350
:100EF0003B6269E101227B6A02FA03F3FB613B6812
:100F00001B68FA691340BB61BA69FB699A4240F0F9
:100F100058813B685B689A4A93425ED0984A9342F4
:100F200075D8984A934258D0964A93426FD8964AB9
:100F3000934252D0944A934269D8944A93424CD0F7
:100F4000924A934263D8924A934246D0904A93423F
:100F50005DD8122B2AD8122B59D801A252F823F0AF
:100F6000DB0F0008B50F0008C70F000809100008C4
:100F70000F1000080F1000080F1000080F100008D5
:100F80000F1000080F1000080F1000080F100008C5
:100F90000F1000080F1000080F1000080F100008B5
:100FA0000F100008BD0F0008D10F0008794A9342C6
:100FB00013D02CE03B68DB683B6229E03B68DB68D0
:100FC00004333B6224E03B68DB6808333B621FE08C
:100FD0003B68DB680C333B621AE03B689B68002B84
:100FE00002D104233B6213E03B689B68012B05D1CF
:100FF00008233B627B68FA691A6109E008233B62B7
:101000007B68FA695A6103E000233B6200E000BF9D
:10101000BB69FF2B01D87B6801E07B6804337B61EF
:10102000BB69FF2B02D87B6A9B0002E07B6A083B0E
:101030009B003B617B691A680F213B6901FA03F34E
:10104000DB431A40396A3B6901FA03F31A437B69AF
:101050001A603B685B6803F08053002B00F0B1809E
:101060004D4B9B694C4A43F0010393614A4B9B698A
:1010700003F00103BB60BB68484A7B6A9B080233EC
:1010800052F82330FB607B6A03F003039B000F22BE
:1010900002FA03F3DB43FA681340FB607B68404AC3
:1010A000934213D07B683F4A93420DD07B683E4AFF
:1010B000934207D07B683D4A934201D1032306E067
:1010C000042304E0022302E0012300E000237A6A03
:1010D00002F0030292009340FA681343FB602F4929
:1010E0007B6A9B080233FA6841F823203B685B68FF
:1010F00003F48033002B06D02D4B1A682C49BB69B2
:1011000013430B6006E02A4B1A68BB69DB4328498E
:1011100013400B603B685B6803F40033002B06D080
:10112000234B5A682249BB6913434B6006E0204BAE
:101130005A68BB69DB431E4913404B603B685B68E0
:1011400003F48013002B06D0194B9A681849BB6929
:1011500013438B6006E0164B9A68BB69DB43144966
:1011600013408B603B685B6803F40013002B21D0B5
:101170000F4BDA680E49BB691343CB6021E000BF17
:101180000000321000003110000022100000211079
:101190000000121000001110001002400000014079
:1011A00000080140000C0140001001400014014003
:1011B000000401400B4BDA68BB69DB43094913406B
:1011C000CB607B6A01337B623B681A687B6A22FAD8
:1011D00003F3002B7FF48EAE00BF00BF2C37BD465B
:1011E00080BC70470004014080B483B000AF7860D9
:1011F0000B467B8013467B707B78002B03D07A886C
:101200007B681A6103E07B881A047B681A6100BF5F
:101210000C37BD4680BC704780B582B000AF034636
:10122000FB80084B5A69FB881340002B06D0054A07
:10123000FB885361FB88184600F006F800BF0837AA
:10124000BD4680BD0004014080B483B000AF0346BA
:10125000FB8000BF0C37BD4680BC704780B586B0B0
:1012600000AF78607B68002B01D101236CE27B68C2
:101270001B6803F00103002B00F08780924B5B6832
:1012800003F00C03042B0CD08F4B5B6803F00C03B2
:10129000082B12D18C4B5B6803F48033B3F5803F8D
:1012A0000BD1894B1B6803F40033002B6CD07B6897
:1012B0005B68002B68D1012346E27B685B68B3F56D
:1012C000803F06D1804B1B687F4A43F48033136014
:1012D0002EE07B685B68002B0CD17B4B1B687A4A45
:1012E00023F480331360784B1B68774A23F4802300
:1012F00013601DE07B685B68B3F5A02F0CD1724BC7
:101300001B68714A43F4802313606F4B1B686E4A5D
:1013100043F4803313600BE06B4B1B686A4A23F481
:1013200080331360684B1B68674A23F48023136083
:101330007B685B68002B13D0FFF772FC386108E014
:10134000FFF76EFC02463B69D31A642B01D90323D5
:10135000FAE15D4B1B6803F40033002BF0D014E07E
:10136000FFF75EFC386108E0FFF75AFC02463B6974
:10137000D31A642B01D90323E6E1534B1B6803F412
:101380000033002BF0D100E000BF7B681B6803F046
:101390000203002B63D04C4B5B6803F00C03002B63
:1013A0000BD0494B5B6803F00C03082B1CD1464B58
:1013B0005B6803F48033002B16D1434B1B6803F0AA
:1013C0000203002B05D07B681B69012B01D0012390
:1013D000BAE13D4B1B6823F0F8027B685B69DB00D8
:1013E000394913430B603AE07B681B69002B20D01E
:1013F000364B01221A60FFF713FC386108E0FFF753
:101400000FFC02463B69D31A022B01D903239BE14F
:101410002D4B1B6803F00203002BF0D02A4B1B68F6
:1014200023F0F8027B685B69DB00274913430B60FC
:1014300015E0264B00221A60FFF7F2FB386108E046
:10144000FFF7EEFB02463B69D31A022B01D90323B7
:101450007AE11D4B1B6803F00203002BF0D17B687F
:101460001B6803F00803002B3AD07B689B69002BB4
:1014700019D0174B01221A60FFF7D2FB386108E040
:10148000FFF7CEFB02463B69D31A022B01D9032397
:101490005AE10D4B5B6A03F00203002BF0D00120F0
:1014A00000F008FB1CE00A4B00221A60FFF7B8FBB3
:1014B00038610FE0FFF7B4FB02463B69D31A022BF9
:1014C00008D9032340E100BF00100240000042425F
:1014D000800442429E4B5B6A03F00203002BE9D179
:1014E0007B681B6803F00403002B00F0A680002338
:1014F000FB75974BDB6903F08053002B0DD1944BA8
:10150000DB69934A43F08053D361914BDB6903F06D
:101510008053BB60BB680123FB758E4B1B6803F4D3
:101520008073002B18D18B4B1B688A4A43F480735D
:101530001360FFF775FB386108E0FFF771FB0246A7
:101540003B69D31A642B01D90323FDE0814B1B684F
:1015500003F48073002BF0D07B68DB68012B06D18D
:101560007B4B1B6A7A4A43F0010313622DE07B68D0
:10157000DB68002B0CD1764B1B6A754A23F0010304
:101580001362734B1B6A724A23F0040313621CE05C
:101590007B68DB68052B0CD16D4B1B6A6C4A43F0F2
:1015A000040313626A4B1B6A694A43F00103136226
:1015B0000BE0674B1B6A664A23F001031362644B1E
:1015C0001B6A634A23F0040313627B68DB68002B09
:1015D00015D0FFF725FB38610AE0FFF721FB024633
:1015E0003B69D31A41F28832934201D90323ABE01D
:1015F000574B1B6A03F00203002BEED014E0FFF7F9
:101600000FFB38610AE0FFF70BFB02463B69D31A78
:1016100041F28832934201D9032395E04C4B1B6A77
:1016200003F00203002BEED1FB7D012B05D1484BCB
:10163000DB69474A23F08053D3617B68DB69002B69
:1016400000F08180424B5B6803F00C03082B61D0F3
:101650007B68DB69022B46D13F4B00221A60FFF703
:10166000DFFA386108E0FFF7DBFA02463B69D31A7C
:10167000022B01D9032367E0354B1B6803F000738D
:10168000002BF0D17B681B6AB3F5803F08D1304B4B
:101690005B6823F400327B689B682D4913434B60E1
:1016A0002B4B5B6823F474127B68196A7B685B6A56
:1016B0000B43274913434B60274B01221A60FFF766
:1016C000AFFA386108E0FFF7ABFA02463B69D31A7C
:1016D000022B01D9032337E01D4B1B6803F0007375
:1016E000002BF0D02FE01C4B00221A60FFF798FA75
:1016F000386108E0FFF794FA02463B69D31A022BDF
:1017000001D9032320E0124B1B6803F00073002B68
:10171000F0D118E07B68DB69012B01D1012313E0D4
:101720000B4B5B68FB60FB6803F480327B681B6AD1
:101730009A4206D1FB6803F470127B685B6A9A4296
:1017400001D0012300E0002318461837BD4680BDB4
:1017500000100240007000406000424280B584B03A
:1017600000AF786039607B68002B01D10123D0E0A5
:101770006A4B1B6803F007033A689A4210D9674B1B
:101780001B6823F0070265493B6813430B60634BFA
:101790001B6803F007033A689A4201D00123B8E0BE
:1017A0007B681B6803F00203002B20D07B681B685A
:1017B00003F00403002B05D0594B5B68584A43F4EF
:1017C000E06353607B681B6803F00803002B05D0BF
:1017D000534B5B68524A43F460535360504B5B6811
:1017E00023F0F0027B689B684D4913434B607B6894
:1017F0001B6803F00103002B40D07B685B68012B62
:1018000007D1474B1B6803F40033002B15D101238C
:101810007FE07B685B68022B07D1414B1B6803F0BC
:101820000073002B09D1012373E03D4B1B6803F0CB
:101830000203002B01D101236BE0394B5B6823F0DD
:1018400003027B685B68364913434B60FFF7E8F996
:10185000F8600AE0FFF7E4F90246FB68D31A41F2A8
:101860008832934201D9032353E02D4B5B6803F088
:101870000C027B685B689B009A42EBD1274B1B688C
:1018800003F007033A689A4210D2244B1B6823F0F6
:10189000070222493B6813430B60204B1B6803F08F
:1018A00007033A689A4201D0012332E07B681B6843
:1018B00003F00403002B08D0194B5B6823F4E062AB
:1018C0007B68DB68164913434B607B681B6803F039
:1018D0000803002B09D0124B5B6823F460527B682D
:1018E0001B69DB000E4913434B6000F021F80246F0
:1018F0000B4B5B681B0903F00F030A49CB5C22FA10
:1019000003F3094A1360094B1B681846FFF774F884
:10191000002318461037BD4680BD00BF002002409E
:101920000010024090610008000000200400002028
:1019300090B48AB000AF2A4B3C1D0FCB84E80F0057
:1019400040F201233B800023FB610023BB610023A5
:101950007B6200237B6100233B62224B5B68FB615F
:10196000FB6903F00C03042B02D0082B03D02DE0FD
:101970001D4B3B622DE0FB699B0C03F00F0307F14D
:101980002802134413F8243C7B61FB6903F4803381
:10199000002B13D0134B5B685B0C03F0010307F1C2
:1019A0002802134413F8283CBB617B690E4A02FBF2
:1019B00003F2BB69B2FBF3F37B6204E07B690B4A81
:1019C00002FB03F37B627B6A3B6202E0064B3B62F5
:1019D00000BF3B6A18462837BD4690BC704700BF21
:1019E000786000080010024000127A0000093D00F3
:1019F00080B400AF024B1B681846BD4680BC7047E0
:101A00000000002080B500AFFFF7F2FF0246054B53
:101A10005B681B0A03F007030349CB5C22FA03F35C
:101A2000184680BD00100240A061000880B500AFDC
:101A3000FFF7DEFF0246054B5B68DB0A03F0070396
:101A40000349CB5C22FA03F3184680BD0010024024
:101A5000A061000880B483B000AF786039607B6813
:101A60000F221A60114B5B6803F003027B685A6017
:101A70000E4B5B6803F0F0027B689A600B4B5B686F
:101A800003F4E0627B68DA60084B5B68DB0803F410
:101A9000E0627B681A61064B1B6803F007023B6833
:101AA0001A6000BF0C37BD4680BC70470010024072
:101AB0000020024080B485B000AF78600A4B1B68FC
:101AC0000A4AA2FB03235B0A7A6802FB03F3FB606A
:101AD00000BFFB685A1EFA60002BF9D100BF00BF9F
:101AE0001437BD4680BC704700000020D34D621003
:101AF00080B582B000AF78607B68002B01D10123F4
:101B000041E07B6893F83D30DBB2002B06D17B6867
:101B1000002283F83C20786800F039F87B680222C4
:101B200083F83D207B681A687B68043319461046A9
:101B300000F0B4F97B68012283F846207B6801221B
:101B400083F83E207B68012283F83F207B680122D6
:101B500083F840207B68012283F841207B680122C2
:101B600083F842207B68012283F843207B680122AE
:101B700083F844207B68012283F845207B6801229A
:101B800083F83D20002318460837BD4680BD80B449
:101B900083B000AF786000BF0C37BD4680BC704793
:101BA00080B485B000AF78607B6893F83D30DBB2DD
:101BB000012B01D001233AE07B68022283F83D200B
:101BC0007B681B68DA687B681B6842F00102DA6098
:101BD0007B681B68184A93420ED07B681B68B3F180
:101BE000804F09D07B681B68144A934204D07B68FD
:101BF0001B68134A934211D17B681B689B6803F0F2
:101C00000703FB60FB68062B10D07B681B681A6813
:101C10007B681B6842F001021A6007E07B681B6862
:101C20001A687B681B6842F001021A60002318469C
:101C30001437BD4680BC7047002C014000040040B2
:101C40000008004080B582B000AF78607B681B68F8
:101C50001B6903F00203022B22D17B681B68DB683F
:101C600003F00203022B1BD17B681B686FF002029A
:101C70001A617B6801221A777B681B689B6903F0F5
:101C80000303002B03D0786800F0EDF805E07868D6
:101C900000F0E0F8786800F0EFF87B6800221A772F
:101CA0007B681B681B6903F00403042B22D17B684B
:101CB0001B68DB6803F00403042B1BD17B681B68E3
:101CC0006FF004021A617B6802221A777B681B6836
:101CD0009B6903F44073002B03D0786800F0C3F8CD
:101CE00005E0786800F0B6F8786800F0C5F87B6821
:101CF00000221A777B681B681B6903F00803082B16
:101D000022D17B681B68DB6803F00803082B1BD11A
:101D10007B681B686FF008021A617B6804221A77DF
:101D20007B681B68DB6903F00303002B03D0786832
:101D300000F099F805E0786800F08CF8786800F019
:101D40009BF87B6800221A777B681B681B6903F08D
:101D50001003102B22D17B681B68DB6803F0100393
:101D6000102B1BD17B681B686FF010021A617B6817
:101D700008221A777B681B68DB6903F44073002B29
:101D800003D0786800F06FF805E0786800F062F83A
:101D9000786800F071F87B6800221A777B681B680E
:101DA0001B6903F00103012B0ED17B681B68DB6804
:101DB00003F00103012B07D17B681B686FF0010260
:101DC0001A617868FEF776FD7B681B681B6903F073
:101DD0008003802B0ED17B681B68DB6803F08003D7
:101DE000802B07D17B681B686FF080021A617868CE
:101DF00000F0BFF87B681B681B6903F04003402BB1
:101E00000ED17B681B68DB6803F04003402B07D1D1
:101E10007B681B686FF040021A61786800F035F843
:101E20007B681B681B6903F02003202B0ED17B68A5
:101E30001B68DB6803F02003202B07D17B681B683D
:101E40006FF020021A61786800F08AF800BF083746
:101E5000BD4680BD80B483B000AF786000BF0C3752
:101E6000BD4680BC704780B483B000AF786000BFCF
:101E70000C37BD4680BC704780B483B000AF78603B
:101E800000BF0C37BD4680BC704780B483B000AF44
:101E9000786000BF0C37BD4680BC704780B485B009
:101EA00000AF786039607B681B68FB607B68294AFB
:101EB00093420BD07B68B3F1804F07D07B68264AF2
:101EC000934203D07B68254A934208D1FB6823F0F4
:101ED0007003FB603B685B68FA681343FB607B68D8
:101EE0001C4A93420BD07B68B3F1804F07D07B68CC
:101EF000194A934203D07B68184A934208D1FB6881
:101F000023F44073FB603B68DB68FA681343FB60B3
:101F1000FB6823F080023B685B691343FB607B68CE
:101F2000FA681A603B689A687B68DA623B681A68EC
:101F30007B689A627B68074A934203D13B681A69BF
:101F40007B681A637B6801225A6100BF1437BD4663
:101F500080BC7047002C0140000400400008004095
:101F600080B483B000AF786000BF0C37BD4680BC42
:101F7000704780B483B000AF786000BF0C37BD46B7
:101F800080BC704780B582B000AF78607B68002B62
:101F900001D1012333E07B6893F83D30DBB2002BA5
:101FA00006D17B68002283F83C207868FEF7D2FCDB
:101FB0007B68022283F83D20786800F003FC7B6890
:101FC0001B681A697B681B6822F480421A617B686F
:101FD0001B685A697B681B6822F02A025A617B6879
:101FE0001B68DA687B681B6842F40052DA607B6821
:101FF00000221A647B68012283F83D2000231846E2
:102000000837BD4680BD80B485B000AFF860B960C8
:102010001346FB80FB6893F83D30DBB2012B30D1D7
:10202000BB68002B02D0FB88002B01D1012329E0E3
:10203000FB6893F83C30012B01D1022322E0FB68BE
:10204000012283F83C20FB68BA685A62FB68FA8870
:102050001A85FB68FA885A85FB6800221A64FB68B7
:10206000122283F83D20FB68002283F83C20FB68A5
:102070001B68DA68FB681B6842F08002DA600023A4
:1020800000E0022318461437BD4680BC704780B478
:1020900085B000AFF860B9601346FB80FB6893F829
:1020A0003D30DBB2012B3DD1BB68002B02D0FB8859
:1020B000002B01D1012336E0FB6893F83C30012B63
:1020C00001D102232FE0FB68012283F83C20FB684A
:1020D000BA68DA62FB68FA881A86FB68FA885A8658
:1020E000FB6800221A64FB68222283F83D20FB680B
:1020F000002283F83C20FB681B68DA68FB681B68D9
:1021000042F49072DA60FB681B685A69FB681B68CE
:1021100042F001025A61FB681B6840F2FF125A60EC
:10212000002300E0022318461437BD4680BC7047E8
:1021300080B588B000AF78607B681B681B68FB6166
:102140007B681B68DB68BB617B681B685B697B61C4
:1021500000233B610023FB60FB6903F00F033B613D
:102160003B69002B17D1FB6903F02003002B12D031
:10217000BB6903F02003002B0DD07B6893F83D3042
:10218000DBB2222B03D1786800F0C1F9E9E078686E
:1021900000F043FAE5E03B69002B00F0BB807B696F
:1021A00003F00103002B05D1BB6903F49073002BEE
:1021B00000F0B080FB6903F00103002B0AD0BB697B
:1021C00003F48073002B05D07B681B6C43F0010285
:1021D0007B681A64FB6903F00403002B0AD07B6957
:1021E00003F00103002B05D07B681B6C43F0020257
:1021F0007B681A64FB6903F00203002B0AD07B6939
:1022000003F00103002B05D07B681B6C43F0040234
:102210007B681A64FB6903F00803002B0FD0BB69CD
:1022200003F02003002B04D17B6903F00103002B92
:1022300005D07B681B6C43F008027B681A647B68DE
:102240001B6C002B00F08C80FB6903F02003002B3B
:1022500011D0BB6903F02003002B0CD07B6893F8EE
:102260003D30DBB2222B03D1786800F050F902E058
:10227000786800F0D2F97B681B685B6903F0400363
:10228000002B14BF01230023DBB2FB607B681B6CB7
:1022900003F00803002B02D1FB68002B31D07868D3
:1022A00000F095F87B681B685B6903F04003002B26
:1022B00023D07B681B685A697B681B6822F0400248
:1022C0005A617B689B6B002B13D07B689B6B264A03
:1022D0005A637B689B6B1846FEF78CFD0346002B08
:1022E00016D07B689B6B5B6B7A68926B1046984745
:1022F0000EE0786800F055F80AE0786800F051F8D0
:1023000006E0786800F04DF87B6800221A6427E048
:1023100000BF25E0FB6903F08003002B12D0BB69EE
:1023200003F08003002B0DD07B6893F83D30DBB2C7
:10233000122B03D1786800F07BF812E0786800F087
:102340006CF90EE0FB6903F04003002B09D0BB6978
:1023500003F04003002B04D0786800F0B8F800E0E8
:1023600000BF2037BD4680BD0924000880B483B07B
:1023700000AF786000BF0C37BD4680BC704780B4AA
:1023800083B000AF786000BF0C37BD4680BC70479B
:1023900080B483B000AF786000BF0C37BD4680BC0E
:1023A000704780B483B000AF786000BF0C37BD4683
:1023B00080BC704780B483B000AF78607B6893F8CE
:1023C0003D30DBB218460C37BD4680BC704780B448
:1023D00083B000AF78607B681B68DA687B681B6835
:1023E00022F49072DA607B681B685A697B681B680C
:1023F00022F001025A617B68012283F83D2000BF70
:102400000C37BD4680BC704780B584B000AF7860A3
:102410007B685B6AFB60FB6800225A86FB680022CF
:102420005A85F868FFF7BDFF00BF1037BD4680BD75
:1024300080B485B000AF78607B6893F83D30DBB244
:10244000122B3ED17B689B68B3F5805F14D17B680B
:102450001B69002B10D17B685B6AFB60FB681B88E3
:102460001A467B681B68C2F308025A607B685B6A85
:102470009A1C7B685A6208E07B685B6A591C7A6820
:1024800051621A787B681B685A607B685B8D9BB2CF
:10249000013B9BB27A6819465185002B0FD17B68AE
:1024A0001B68DA687B681B6822F08002DA607B6850
:1024B0001B68DA687B681B6842F04002DA60002320
:1024C00000E0022318461437BD4680BC704780B533
:1024D00082B000AF78607B681B68DA687B681B6835
:1024E00022F04002DA607B681B685A697B681B68CF
:1024F00022F001025A617B68012283F83D2078684E
:10250000FFF734FF002318460837BD4680BD80B56D
:1025100084B000AF78607B6893F83D30DBB2222B4B
:1025200076D17B689B68B3F5805F17D17B681B69A8
:10253000002B13D10023FB607B68DB6ABB607B68E8
:102540001B685B689BB2C3F308039AB2BB681A802E
:102550007B68DB6A9A1C7B68DA6226E07B68DB6A50
:10256000FB600023BB607B689B68B3F5805F07D08E
:102570007B689B68002B0AD17B681B69002B06D106
:102580007B681B685B68DAB2FB681A7008E07B68DE
:102590001B685B68DBB203F07F03DAB2FB681A707A
:1025A0007B68DB6A5A1C7B68DA627B685B8E9BB255
:1025B000013B9AB27B685A867B685B8E9BB2002B8C
:1025C00020D17B681B68DA687B681B6822F02002D8
:1025D000DA607B681B68DA687B681B6822F48072AB
:1025E000DA607B681B685A697B681B6822F001020D
:1025F0005A617B68012283F83D207868FFF7BFFEAF
:10260000002306E07B681B68FF225A60002300E07D
:10261000022318461037BD4680BD80B584B000AF98
:1026200078607B6893F83D30DBB2322B40F0C48099
:102630007B685B8D9BB2002B3FD07B681B681B685F
:1026400003F08003802B38D17B689B68B3F5805FF3
:1026500016D17B681B69002B12D10023FB607B68BD
:102660005B6ABB60BB681B881A467B681B68C2F349
:1026700008025A607B685B6A9A1C7B685A6208E0B1
:102680007B685B6A591C7A6851621A787B681B68A0
:102690005A607B685B8D9BB2013B9AB27B685A851E
:1026A0007B685B8D9BB2002B07D17B681B68DA6867
:1026B0007B681B6822F08002DA607B685B8E9BB2CD
:1026C000002B51D07B681B681B6803F02003202B74
:1026D0004AD17B689B68B3F5805F17D17B681B6923
:1026E000002B13D10023FB607B68DB6ABB607B6837
:1026F0001B685B689BB2C3F308039AB2BB681A807D
:102700007B68DB6A9A1C7B68DA6226E07B68DB6A9E
:10271000FB600023BB607B689B68B3F5805F07D0DC
:102720007B689B68002B0AD17B681B69002B06D154
:102730007B681B685B68DAB2FB681A7008E07B682C
:102740001B685B68DBB203F07F03DAB2FB681A70C8
:102750007B68DB6A5A1C7B68DA627B685B8E9BB2A3
:10276000013B9AB27B685A867B685B8E9BB2002BDA
:1027700020D17B681B68DA687B681B6822F0200226
:10278000DA607B681B68DA687B681B6822F48072F9
:10279000DA607B681B685A697B681B6822F001025B
:1027A0005A617B68012283F83D207868FFF7F0FDCD
:1027B000002302E0002300E0022318461037BD4644
:1027C00080BD000080B584B000AF78600023FB605E
:1027D0007B681B68DA687B681B6822F00C02DA6091
:1027E0007B681B681B69FB60FB6823F47C53FB6000
:1027F0007B689A697B68DB691A437B681B6A1A43AA
:102800007B68DB681A43FB68134343F40063FB6097
:102810007B681B68FA681A617B681B68DB68FB6071
:10282000FB6823F4B05323F00C03FB607B689A68C9
:102830007B681B691A437B685B691343FA6813431F
:10284000FB607B681B68FA68DA607B681B685A6902
:102850007B681B6822F440725A617B681B68534A8C
:1028600093424FD1FFF7E2F8B860BA6813469B0075
:1028700013449A001A447B685B689B00B2FBF3F335
:102880004B4AA2FB03235B091901BA6813469B005C
:1028900013449A001A447B685B689B00B2FBF3F216
:1028A000434BA3FB02035B09642000FB03F3D31A31
:1028B0001B0132333E4AA2FB03235B095B0003F496
:1028C000F0731944BA6813469B0013449A001A44E3
:1028D0007B685B689B00B2FBF3F2354BA3FB020302
:1028E0005B09642000FB03F3D31A1B013233304A27
:1028F000A2FB03235B0903F00F027B681B680A44F9
:102900009A604EE0FFF77EF8B860BA6813469B0005
:1029100013449A001A447B685B689B00B2FBF3F394
:10292000234AA2FB03235B091901BA6813469B00E3
:1029300013449A001A447B685B689B00B2FBF3F275
:102940001B4BA3FB02035B09642000FB03F3D31AB8
:102950001B013233164AA2FB03235B095B0003F41D
:10296000F0731944BA6813469B0013449A001A4442
:102970007B685B689B00B2FBF3F20D4BA3FB020389
:102980005B09642000FB03F3D31A1B013233084AAE
:10299000A2FB03235B0903F00F027B681B680A4458
:1029A0009A6000BF1037BD4680BD00BF00380140AF
:1029B0001F85EB5180B485B000AFEFF30583BB609A
:1029C000BB68002B0FD1EFF310837B607B68002B7B
:1029D00009D1104B1B68022B09D1EFF311833B6027
:1029E0003B68002B03D06FF00503FB600CE0094B44
:1029F0001B68002B05D1074B01221A600023FB60E6
:102A000002E04FF0FF33FB60FB6818461437BD4609
:102A100080BC70479800002080B584B000AFEFF311
:102A20000583BB60BB68002B0FD1EFF310837B6085
:102A30007B68002B09D1114B1B68022B09D1EFF3E6
:102A400011833B603B68002B03D06FF00503FB60F4
:102A50000EE00A4B1B68012B07D1084B02221A60BB
:102A600001F040FD0023FB6002E04FF0FF33FB600C
:102A7000FB6818461037BD4680BD00BF9800002097
:102A800080B592B004AFF860B9607A6000237B61D2
:102A9000EFF305837B627B6A002B40F09480EFF3B9
:102AA00010833B623B6A002B40F08D80484B1B68D3
:102AB000022B06D1EFF31183FB61FB69002B40F081
:102AC0008280FB68002B7ED080233B631823FB624F
:102AD0000023FB7607F11B037B634FF0FF33BB62E0
:102AE0007B68002B45D07B681B68002B02D07B687D
:102AF0001B687B637B689B69002B02D07B689B69AA
:102B0000FB62FB6A002B08D0FB6A382B05D87B6878
:102B10005B6803F00103002B01D0002354E07B68C5
:102B20005B69002B03D07B685B699B083B637B6818
:102B30009B68002B0ED07B68DB68BB2B0AD97B68B7
:102B40001B69002B06D07B685B69002B02D0012338
:102B5000BB6210E07B689B68002B0CD17B68DB6854
:102B6000002B08D17B681B69002B04D10023BB62BA
:102B700001E00023BB62BB6A012B10D17B681B699B
:102B80007A68926802920193FB6A0093BB683A6B81
:102B9000796BF86801F0C2FA03467B6113E0BB6A07
:102BA000002B10D13B6B9AB207F114030193FB6A1F
:102BB0000093BB68796BF86801F00CFB0346012BAE
:102BC00001D000237B617B6918463837BD4680BD44
:102BD0009800002080B586B000AF7860EFF30583E1
:102BE0003B613B69002B0FD1EFF31083FB60FB6867
:102BF000002B09D10D4B1B68022B09D1EFF3118378
:102C0000BB60BB68002B03D06FF005037B6107E05E
:102C100000237B617B68002B02D0786801F02EFCDA
:102C20007B6918461837BD4680BD00BF980000205C
:102C300080B58AB000AF786000237B62EFF3058334
:102C40003B613B69002B40F08580EFF31083FB6014
:102C5000FB68002B7ED1424B1B68022B05D1EFF3A2
:102C60001183BB60BB68002B74D17B68002B03D041
:102C70007B685B683B6201E000233B623B6A03F0D8
:102C80000103002B02D00123FB6101E00023FB6163
:102C90003B6A03F00803002B5CD14FF0FF33BB61AC
:102CA0007B68002B15D07B689B68002B06D07B6867
:102CB000DB684F2B02D90123BB610CE07B689B686A
:102CC000002B08D17B68DB68002B04D10023BB619B
:102CD00001E00023BB61BB69012B12D1FB69002B12
:102CE00007D07B689B681946042000F0B1FB78622E
:102CF00016E07B689B681946012000F0A9FB78620A
:102D00000EE0BB69002B0BD1FB69002B04D0042023
:102D100000F086FB786203E0012000F081FB78621E
:102D20007B6A002B0CD07B68002B03D07B681B6870
:102D30007B6101E000237B617969786A01F068F9C1
:102D40007B6A002B06D0FB69002B03D07B6A43F023
:102D500001037B627B6A18462837BD4680BD00BFF1
:102D60009800002080B58CB002AFF860B9607A603E
:102D700000237B62EFF30583BB61BB69002B40F04E
:102D80008680EFF310837B617B69002B7FD1424B00
:102D90001B68022B05D1EFF311833B613B69002BCC
:102DA00075D1FB68002B72D0BA68FB689A426ED866
:102DB0004FF0FF333B627B68002B15D07B689B682C
:102DC000002B06D07B68DB684F2B02D901233B62C6
:102DD0000CE07B689B68002B08D17B68DB68002BCC
:102DE00004D100233B6201E000233B623B6AB3F164
:102DF000FF3F4CD0FB68012B28D13B6A012B0AD145
:102E00007B689B680322009200220021012000F0D1
:102E100015FA786205E003220021012000F085FA0E
:102E200078627B6A002B22D0BB68002B1FD0002366
:102E300000220021786A00F091FB0346012B16D096
:102E4000786A00F09BFF00237B6210E03B6A012B55
:102E500008D17B689B681A46B968F86800F013FBD4
:102E6000786204E0B968F86800F044FB78627B6A35
:102E7000002B0CD07B68002B03D07B681B68FB61A8
:102E800001E00023FB61F969786A01F0C1F87B6A0F
:102E900018462837BD4680BD9800002080B58CB00C
:102EA00002AFF860B9607A6000237B62EFF30583BC
:102EB000BB61BB69002B6FD1EFF310837B617B6932
:102EC000002B69D1374B1B68022B05D1EFF311831F
:102ED0003B613B69002B5FD1FB68002B5CD0BB687A
:102EE000002B59D04FF0FF333B627B68002B29D079
:102EF0007B689B68002B12D07B68DB684F2B0ED958
:102F00007B681B69002B0AD07B685A69FB68B9682B
:102F100001FB03F39A4202D301233B6214E07B6876
:102F20009B68002B10D17B68DB68002B0CD17B6881
:102F30001B69002B08D17B685B69002B04D100233F
:102F40003B6201E000233B623B6A012B0BD17B68B3
:102F50001A697B689B6800210091B968F86800F0E5
:102F60006DF9786208E03B6A002B05D10022B96850
:102F7000F86800F0DAF978627B6A002B0CD07B6885
:102F8000002B03D07B681B68FB6101E00023FB6121
:102F9000F969786A01F03CF87B6A18462837BD4623
:102FA00080BD00BF9800002080B485B000AFF860FD
:102FB000B9607A60FB68064A1A60BB68054A1A6005
:102FC0007B6880221A6000BF1437BD4680BC704702
:102FD0009C0000205801002080B485B000AFF8604C
:102FE000B9607A60FB68074A1A60BB68064A1A60D3
:102FF0007B684FF480721A6000BF1437BD4680BCF6
:10300000704700BF580300201404002080B483B030
:1030100000AF78607B6803F108027B685A607B68C8
:103020004FF0FF329A607B6803F108027B68DA6038
:103030007B6803F108027B681A617B6800221A60D2
:1030400000BF0C37BD4680BC704780B483B000AF72
:1030500078607B6800221A6100BF0C37BD4680BCD7
:10306000704780B485B000AF786039607B685B687A
:10307000FB603B68FA685A60FB689A683B689A6034
:10308000FB689B683A685A60FB683A689A603B68DC
:103090007A681A617B681B685A1C7B681A6000BFDB
:1030A0001437BD4680BC704780B485B000AF7860EF
:1030B00039603B681B68BB60BB68B3F1FF3F03D15D
:1030C0007B681B69FB600CE07B680833FB6002E0F7
:1030D000FB685B68FB60FB685B681B68BA689A42C8
:1030E000F6D2FB685A683B685A603B685B683A688E
:1030F0009A603B68FA689A60FB683A685A603B6875
:103100007A681A617B681B685A1C7B681A6000BF6A
:103110001437BD4680BC704780B485B000AF78607E
:103120007B681B69FB607B685B687A6892689A6061
:103130007B689B687A6852685A60FB685B687A684B
:103140009A4203D17B689A68FB685A607B680022C8
:103150001A61FB681B685A1EFB681A60FB681B68D3
:1031600018461437BD4680BC7047000080B584B057
:1031700000AF786039607B68FB60FB68002B0AD188
:103180004FF0500383F31188BFF36F8FBFF34F8F5E
:10319000BB6000BFFEE702F091FBFB681A68FB68AA
:1031A000DB6BF968096C01FB03F31A44FB685A6096
:1031B000FB6800229A63FB681A68FB689A60FB68E8
:1031C0001A68FB68DB6B013BF968096C01FB03F3D0
:1031D0001A44FB68DA60FB68FF2283F84420FB682E
:1031E000FF2283F845203B68002B14D1FB681B6944
:1031F000002B1AD0FB681033184601F00FFC034671
:10320000002B12D00C4B4FF080521A60BFF34F8F3F
:10321000BFF36F8F09E0FB6810331846FFF7F6FE27
:10322000FB6824331846FFF7F1FE02F077FB012319
:1032300018461037BD4680BD04ED00E080B58EB065
:1032400002AFF860B9607A603B60FB68002B0AD17E
:103250004FF0500383F31188BFF36F8FBFF34F8F8D
:10326000BB6200BFFEE73B68002B0AD14FF0500362
:1032700083F31188BFF36F8FBFF34F8F7B6200BF63
:10328000FEE77B68002B02D0BB68002B01D0012336
:1032900000E00023002B0AD14FF0500383F3118884
:1032A000BFF36F8FBFF34F8F3B6200BFFEE77B68BA
:1032B000002B02D1BB68002B01D1012300E00023C9
:1032C000002B0AD14FF0500383F31188BFF36F8FA7
:1032D000BFF34F8FFB6100BFFEE750237B617B692B
:1032E000502B0AD04FF0500383F31188BFF36F8F38
:1032F000BFF34F8FBB6100BFFEE73B68FB62FB6A19
:10330000002B0DD0FB6A012283F8462097F8382065
:10331000FB6A009313467A68B968F86800F043F8CE
:10332000FB6A18463037BD4680BD80B58AB002AF13
:10333000F860B9601346FB71FB68002B0AD14FF0AF
:10334000500383F31188BFF36F8FBFF34F8F3B613F
:1033500000BFFEE7BB68002B02D10023FB6104E045
:10336000FB68BA6802FB03F3FB61FB695033184644
:1033700002F0A4FBB861BB69002B0FD0BB695033CE
:103380007B61BB69002283F84620FA79BB69009310
:1033900013467A69B968F86800F005F8BB69184601
:1033A0002037BD4680BD80B584B000AFF860B960FD
:1033B0007A60FB70BB68002B03D1BB69BA691A60E5
:1033C00002E0BB697A681A60BB69FA68DA63BB69B4
:1033D000BA681A640121B869FFF7C8FEBB69FA78B8
:1033E00083F84C2000BF1037BD4680BD80B582B049
:1033F00000AF78607B68002B0ED07B6800225A609B
:103400007B6800221A607B680022DA6000230022B9
:103410000021786800F0A2F800BF0837BD4680BDE3
:1034200080B586B000AF0346FB7101237B610023AA
:103430003B61FB791A4639697869FFF776FFF860D6
:10344000F868FFF7D3FFFB6818461837BD4680BD04
:1034500080B588B002AF03463960FB7101237B6100
:1034600000233B61FB7900933B680022396978694E
:10347000FFF7E4FEF860F868FFF7B8FFFB6818464E
:103480001837BD4680BD80B58AB002AFF860B9601C
:103490007A60FB68002B0AD14FF0500383F3118848
:1034A000BFF36F8FBFF34F8FBB6100BFFEE7BA68FA
:1034B000FB689A420AD94FF0500383F31188BFF397
:1034C0006F8FBFF34F8F7B6100BFFEE70223009336
:1034D0007B6800220021F868FFF7B0FEF861FB6905
:1034E000002B02D0FB69BA689A63FB691846203743
:1034F000BD4680BD80B586B000AF786039607B681E
:10350000002B0AD14FF0500383F31188BFF36F8F64
:10351000BFF34F8F3B6100BFFEE73A687B689A427A
:103520000AD94FF0500383F31188BFF36F8FBFF3B5
:103530004F8FFB6000BFFEE7022200217868FFF793
:10354000F4FE78617B69002B02D07B693A689A634C
:103550007B6918461837BD4680BD000080B58EB027
:1035600000AFF860B9607A603B6000237B63FB6862
:103570003B633B6B002B0AD14FF0500383F3118860
:10358000BFF36F8FBFF34F8FBB6200BFFEE7BB6817
:10359000002B03D13B6B1B6C002B01D1012300E0FE
:1035A0000023002B0AD14FF0500383F31188BFF39F
:1035B0006F8FBFF34F8F7B6200BFFEE73B68022B2C
:1035C00003D13B6BDB6B012B01D1012300E0002316
:1035D000002B0AD14FF0500383F31188BFF36F8F94
:1035E000BFF34F8F3B6200BFFEE701F07BFB03465A
:1035F000002B02D17B68002B01D1012300E00023C6
:10360000002B0AD14FF0500383F31188BFF36F8F63
:10361000BFF34F8FFB6100BFFEE702F04FF93B6B3A
:103620009A6B3B6BDB6B9A4202D33B68022B29D12E
:103630003A68B968386B00F0DBFBF8623B6B5B6A99
:10364000002B10D03B6B2433184601F0E7F90346FA
:10365000002B13D03F4B4FF080521A60BFF34F8FB7
:10366000BFF36F8F0AE0FB6A002B07D0394B4FF096
:1036700080521A60BFF34F8FBFF36F8F02F04EF985
:10368000012363E07B68002B03D102F047F900239C
:103690005CE07B6B002B06D107F11403184601F0A8
:1036A00021FA01237B6302F039F900F08BFF02F06D
:1036B00005F93B6B93F844305BB2B3F1FF3F03D1A4
:1036C0003B6B002283F844203B6B93F845305BB2A0
:1036D000B3F1FF3F03D13B6B002283F8452002F09A
:1036E0001DF93A1D07F114031146184601F010FAAE
:1036F0000346002B24D1386B00F072FC0346002BEC
:1037000018D03B6B10337A681146184601F036F931
:10371000386B00F0FDFB00F063FF0346002B7FF4E5
:103720007CAF0C4B4FF080521A60BFF34F8FBFF34A
:103730006F8F72E7386B00F0EBFB00F051FF6CE726
:10374000386B00F0E5FB00F04BFF002318463837DC
:10375000BD4680BD04ED00E080B58EB000AFF860DE
:10376000B9607A603B60FB683B633B6B002B0AD11E
:103770004FF0500383F31188BFF36F8FBFF34F8F68
:103780007B6200BFFEE7BB68002B03D13B6B1B6C69
:10379000002B01D1012300E00023002B0AD14FF0C0
:1037A000500383F31188BFF36F8FBFF34F8F3B62DA
:1037B00000BFFEE73B68022B03D13B6BDB6B012BA9
:1037C00001D1012300E00023002B0AD14FF0500368
:1037D00083F31188BFF36F8FBFF34F8FFB6100BF7F
:1037E000FEE702F02DF9EFF311824FF0500383F35F
:1037F0001188BFF36F8FBFF34F8FBA617B61BB69D5
:10380000FB623B6B9A6B3B6BDB6B9A4202D33B6870
:10381000022B2CD13B6B93F8453087F82B303A685C
:10382000B968386B00F0E4FA97F92B30B3F1FF3F39
:1038300012D13B6B5B6A002B16D03B6B24331846CE
:1038400001F0ECF80346002B0ED07B68002B0BD068
:103850007B6801221A6007E097F82B300133DBB256
:103860005AB23B6B83F8452001237B6301E00023C0
:103870007B63FB6A3B613B6983F3118800BF7B6B11
:1038800018463837BD4680BD80B58EB000AF786031
:1038900039607B683B633B6B002B0AD14FF05003D0
:1038A00083F31188BFF36F8FBFF34F8F3B6200BF6D
:1038B000FEE73B6B1B6C002B0AD04FF0500383F3E9
:1038C0001188BFF36F8FBFF34F8FFB6100BFFEE71F
:1038D0003B6B1B68002B03D13B6B5B68002B01D15A
:1038E000012300E00023002B0AD14FF0500383F3A3
:1038F0001188BFF36F8FBFF34F8FBB6100BFFEE72F
:1039000002F09EF8EFF311824FF0500383F3118819
:10391000BFF36F8FBFF34F8F7A613B617B69FB62AF
:103920003B6B9B6BBB623B6BDB6BBA6A9A422BD2E5
:103930003B6B93F8453087F82730BB6A5A1C3B6BCA
:103940009A6397F92730B3F1FF3F12D13B6B5B6A63
:10395000002B16D03B6B2433184601F05FF803466A
:10396000002B0ED03B68002B0BD03B6801221A6065
:1039700007E097F827300133DBB25AB23B6B83F88C
:10398000452001237B6301E000237B63FB6AFB602E
:10399000FB6883F3118800BF7B6B18463837BD4640
:1039A00080BD000080B58CB000AFF860B9607A606F
:1039B0000023FB62FB68BB62BB6A002B0AD14FF09D
:1039C000500383F31188BFF36F8FBFF34F8F3B62B8
:1039D00000BFFEE7BB68002B03D1BB6A1B6C002B4A
:1039E00001D1012300E00023002B0AD14FF0500346
:1039F00083F31188BFF36F8FBFF34F8FFB6100BF5D
:103A0000FEE701F06FF90346002B02D17B68002B23
:103A100001D1012300E00023002B0AD14FF0500315
:103A200083F31188BFF36F8FBFF34F8FBB6100BF6C
:103A3000FEE701F043FFBB6A9B6B7B627B6A002B56
:103A40001FD0B968B86A00F03DFA7B6A5A1EBB6A9B
:103A50009A63BB6A1B69002B0FD0BB6A10331846F0
:103A600000F0DCFF0346002B07D03D4B4FF08052A7
:103A70001A60BFF34F8FBFF36F8F01F04FFF012329
:103A800069E07B68002B03D101F048FF002362E06E
:103A9000FB6A002B06D107F11003184601F022F84B
:103AA0000123FB6201F03AFF00F08CFD01F006FFFC
:103AB000BB6A93F844305BB2B3F1FF3F03D1BB6AFA
:103AC000002283F84420BB6A93F845305BB2B3F11F
:103AD000FF3F03D1BB6A002283F8452001F01EFF9F
:103AE0003A1D07F110031146184601F011F803467C
:103AF000002B23D1B86A00F05DFA0346002B17D0E3
:103B0000BB6A24337A681146184600F037FFB86A5A
:103B100000F0FEF900F064FD0346002B89D1104B44
:103B20004FF080521A60BFF34F8FBFF36F8F80E763
:103B3000B86A00F0EDF900F053FD7AE7B86A00F0DA
:103B4000E7F900F04DFDB86A00F034FA0346002BA7
:103B50003FF46FAF002318463037BD4680BD00BF2D
:103B600004ED00E080B58EB000AF786039600023CE
:103B70007B637B68FB6200233B63FB6A002B0AD1FB
:103B80004FF0500383F31188BFF36F8FBFF34F8F54
:103B90003B6200BFFEE7FB6A1B6C002B0AD04FF0B4
:103BA000500383F31188BFF36F8FBFF34F8FFB6117
:103BB00000BFFEE701F096F80346002B02D13B68F8
:103BC000002B01D1012300E00023002B0AD14FF08C
:103BD000500383F31188BFF36F8FBFF34F8FBB6127
:103BE00000BFFEE701F06AFEFB6A9B6BBB62BB6A2B
:103BF000002B24D0BB6A5A1EFB6A9A63FB6A1B68BF
:103C0000002B04D101F0EEF90246FB6A5A60FB6A10
:103C10001B69002B0FD0FB6A1033184600F0FEFE24
:103C20000346002B07D0544B4FF080521A60BFF36D
:103C30004F8FBFF36F8F01F071FE012397E03B6858
:103C4000002B11D13B6B002B0AD04FF0500383F3B4
:103C50001188BFF36F8FBFF34F8F7B6100BFFEE70B
:103C600001F05CFE002382E07B6B002B06D107F1A4
:103C70000C03184600F036FF01237B6301F04EFE73
:103C800000F0A0FC01F01AFEFB6A93F844305BB22E
:103C9000B3F1FF3F03D1FB6A002283F84420FB6AA3
:103CA00093F845305BB2B3F1FF3F03D1FB6A0022CA
:103CB00083F8452001F032FE3A4607F10C03114625
:103CC000184600F025FF0346002B32D1F86A00F0B9
:103CD00071F90346002B26D0FB6A1B68002B09D123
:103CE00001F0ECFDFB6A5B68184601F019F83863D7
:103CF00001F014FEFB6A24333A681146184600F0BE
:103D00003DFEF86A00F004F900F06AFC0346002B5F
:103D10007FF468AF184B4FF080521A60BFF34F8F9B
:103D2000BFF36F8F5EE7F86A00F0F2F800F058FC1E
:103D300058E7F86A00F0ECF800F052FCF86A00F07E
:103D400039F90346002B3FF44DAF3B6B002B0DD0F0
:103D500001F0B4FDF86A00F034F87862FB6A5B6841
:103D6000796A184601F0B8F801F0D8FD002318462A
:103D70003837BD4680BD00BF04ED00E080B584B09B
:103D800000AF78607B68FB60FB68002B0AD14FF0C6
:103D9000500383F31188BFF36F8FBFF34F8FBB6066
:103DA00000BFFEE7F86800F05BF9FB6893F8463067
:103DB000002B02D1F86801F045FF00BF1037BD4667
:103DC00080BD80B485B000AF78607B685B6A002BF3
:103DD00006D07B681B6B1B68C3F13803FB6001E0F6
:103DE0000023FB60FB6818461437BD4680BC704753
:103DF00080B586B000AFF860B9607A6000237B615F
:103E0000FB689B6B3B61FB681B6C002B0DD1FB6857
:103E10001B68002B4DD1FB685B68184600F0EEFF75
:103E20007861FB6800225A6043E07B68002B19D15F
:103E3000FB689868FB681B6C1A46B96802F04AF880
:103E4000FB689A68FB681B6C1A44FB689A60FB6805
:103E50009A68FB685B689A422BD3FB681A68FB6818
:103E60009A6026E0FB68D868FB681B6C1A46B96844
:103E700002F030F8FB68DA68FB681B6C5B421A449E
:103E8000FB68DA60FB68DA68FB681B689A4207D255
:103E9000FB685A68FB681B6C5B421A44FB68DA607B
:103EA0007B68022B05D13B69002B02D03B69013BAB
:103EB0003B613B695A1CFB689A637B69184618375B
:103EC000BD4680BD80B582B000AF786039607B6848
:103ED0001B6C002B18D07B68DA687B681B6C1A445B
:103EE0007B68DA607B68DA687B685B689A4203D338
:103EF0007B681A687B68DA607B68D9687B681B6CB2
:103F00001A46386801F0E6FF00BF0837BD4680BD9D
:103F100080B584B000AF786001F0D0FC7B6893F886
:103F20004530FB7311E07B685B6A002B12D07B6825
:103F30002433184600F072FD0346002B01D000F038
:103F400049FEFB7B013BDBB2FB7397F90F30002B83
:103F5000E9DC00E000BF7B68FF2283F8452001F028
:103F6000DDFC01F0ABFC7B6893F84430BB7311E0DF
:103F70007B681B69002B12D07B681033184600F059
:103F80004DFD0346002B01D000F024FEBB7B013B1E
:103F9000DBB2BB7397F90E30002BE9DC00E000BF09
:103FA0007B68FF2283F8442001F0B8FC00BF103783
:103FB000BD4680BD80B584B000AF786001F07EFC66
:103FC0007B689B6B002B02D10123FB6001E0002387
:103FD000FB6001F0A3FCFB6818461037BD4680BDAE
:103FE00080B584B000AF786001F068FC7B689A6BA4
:103FF0007B68DB6B9A4202D10123FB6001E0002366
:10400000FB6001F08BFCFB6818461037BD4680BD95
:1040100080B485B000AF786039600023FB6014E0A5
:104020000E4AFB6852F83330002B0BD10B49FB686A
:104030003A6841F83320094AFB68DB0013447A6888
:104040005A6006E0FB680133FB60FB68072BE7D989
:1040500000BF00BF1437BD4680BC7047B01C0020B5
:1040600080B485B000AF78600023FB6016E0104A92
:10407000FB68DB0013445B687A689A420BD10C4AF8
:10408000FB68002142F83310094AFB68DB00134447
:1040900000225A6006E0FB680133FB60FB68072BD7
:1040A000E5D900BF00BF1437BD4680BC704700BFD4
:1040B000B01C002080B586B000AFF860B9607A60AF
:1040C000FB687B6101F0FAFB7B6993F844305BB2DB
:1040D000B3F1FF3F03D17B69002283F844207B6961
:1040E00093F845305BB2B3F1FF3F03D17B69002207
:1040F00083F8452001F012FC7B699B6B002B06D1F5
:104100007B6924337A68B968184600F05BFC7869EB
:10411000FFF7FEFE00BF1837BD4680BD80B58EB0EC
:1041200004AFF860B9607A603B607B6B002B0AD10A
:104130004FF0500383F31188BFF36F8FBFF34F8F9E
:104140003B6200BFFEE7BB6B002B0AD14FF0500370
:1041500083F31188BFF36F8FBFF34F8FFB6100BFF5
:10416000FEE7BC233B613B69BC2B0AD04FF05003F8
:1041700083F31188BFF36F8FBFF34F8FBB6100BF15
:10418000FEE7BB6B002B1ED07B6B002B1BD0BB6BE9
:104190007B627B6A7A6B1A637B6A022283F8B9209E
:1041A000002303937B6A029307F1140301933B6B93
:1041B00000933B687A68B968F86800F051F8786A4B
:1041C00000F0ECF801E000237B617B69184628379A
:1041D000BD4680BD80B58CB004AFF860B9603B606F
:1041E0001346FB80FB889B00184601F067FC786152
:1041F0007B69002B0ED0BC2001F060FCF861FB69EC
:10420000002B03D0FB697A691A6305E0786901F035
:1042100019FD01E00023FB61FB69002B17D0FB694E
:10422000002283F8B920FA8800230393FB690293E4
:10423000FB6A0193BB6A00933B68B968F86800F0B9
:104240000FF8F86900F0AAF80123BB6102E04FF013
:10425000FF33BB61BB6918462037BD4680BD0000F7
:1042600080B588B000AFF860B9607A603B603B6BA6
:10427000186B7B689B001A46A52101F039FE3B6B49
:104280001A6B7B6803F18043013B9B001344BB61C5
:10429000BB6923F00703BB61BB6903F00703002B75
:1042A0000AD04FF0500383F31188BFF36F8FBFF331
:1042B0004F8F7B6100BFFEE70023FB6112E0BA680D
:1042C000FB69134419783A6BFB69134434330A468B
:1042D0001A70BA68FB6913441B78002B06D0FB697F
:1042E0000133FB61FB690F2BE9D900E000BF3B6B99
:1042F000002283F84320BB6A372B01D93723BB62E6
:104300003B6BBA6ADA623B6BBA6ADA643B6B0022D7
:104310001A653B6B04331846FEF797FE3B6B183368
:104320001846FEF792FE3B6B3A6B1A61BB6AC3F10B
:1043300038023B6B9A613B6B3A6B5A623B6B0022D3
:10434000C3F8B4203B6B002283F8B8203B6B543396
:1043500060220021184601F0CBFD3B6B0C4A9A65A8
:104360003B6B0C4ADA653B6B0B4A1A663A68F96894
:10437000B86901F0B1F902463B6B1A60FB6A002B89
:1043800002D0FB6A3A6B1A6000BF2037BD4680BD81
:10439000C8610008E8610008A861000880B582B023
:1043A00000AF786001F08AFA2D4B1B6801332C4A6C
:1043B00013602C4B1B68002B09D12A4A7B681360C1
:1043C000274B1B68012B10D100F028FC0DE0264B79
:1043D0001B68002B09D1234B1B68DA6A7B68DB6AF8
:1043E0009A4202D81F4A7B681360204B1B68013336
:1043F0001E4A13601D4B1A687B685A647B68DA6A30
:104400001B4B1B689A4203D97B68DB6A184A13600E
:104410007B68DA6A13469B0013449B00154A1A44D2
:104420007B68043319461046FEF71BFE01F076FA4E
:104430000D4B1B68002B0ED00A4B1B68DA6A7B6899
:10444000DB6A9A4207D20C4B4FF080521A60BFF3DE
:104450004F8FBFF36F8F00BF0837BD4680BD00BFD1
:10446000D00C002014080020DC0C0020EC0C0020F4
:10447000D80C00201808002004ED00E080B584B0BE
:1044800000AF78600023FB607B68002B17D0134BD4
:104490001B68002B0AD04FF0500383F31188BFF341
:1044A0006F8FBFF34F8FBB6000BFFEE700F08AF84D
:1044B0000021786800F0AAFD00F092F8F860FB682F
:1044C000002B07D1064B4FF080521A60BFF34F8F7D
:1044D000BFF36F8F00BF1037BD4680BDF80C0020C2
:1044E00004ED00E080B58AB004AF0023BB60002378
:1044F0007B603A46391D07F108031846FEF754FD64
:1045000039687B68BA680292019300230093002304
:104510000A4624492448FFF701FE0346234A136054
:10452000224B1B68002B02D001237B6101E000239A
:104530007B617B69012B02D100F0BCFD78617B6956
:10454000012B1BD14FF0500383F31188BFF36F8F02
:10455000BFF34F8F3B6100BF154B1B685433154AA7
:104560001360154B4FF0FF321A60144B01221A6092
:10457000134B00221A6001F02FF90EE07B69B3F1B2
:10458000FF3F0AD14FF0500383F31188BFF36F8FC1
:10459000BFF34F8FFB6000BFFEE700BF1837BD467B
:1045A00080BD00BF88600008ED4B0008F40C0020BF
:1045B0001408002010000020F00C0020DC0C00206B
:1045C000D40C002080B400AF044B1B680133034AB5
:1045D000136000BFBD4680BC704700BFF80C0020D0
:1045E00080B584B000AF0023FB600023BB60424B6A
:1045F0001B68002B0AD14FF0500383F31188BFF3DF
:104600006F8FBFF34F8F3B6000BFFEE701F056F99D
:10461000394B1B68013B384A1360374B1B68002B32
:1046200062D1364B1B68002B5ED02FE0344BDB6829
:10463000DB68FB60FB6818331846FEF76DFDFB680E
:1046400004331846FEF768FDFB68DA6A2D4B1B68D9
:104650009A4203D9FB68DB6A2A4A1360FB68DA6A6C
:1046600013469B0013449B00274A1A44FB680433FB
:1046700019461046FEF7F5FCFB68DA6A234B1B6807
:10468000DB6A9A4202D3224B01221A601C4B1B6840
:10469000002BCBD1FB68002B01D000F0FFFA1D4BA3
:1046A0001B687B607B68002B10D000F045F8034648
:1046B000002B02D0164B01221A607B68013B7B6005
:1046C0007B68002BF1D1134B00221A60104B1B6842
:1046D000002B09D00123BB600F4B4FF080521A60B2
:1046E000BFF34F8FBFF36F8F01F018F9BB68184607
:1046F0001037BD4680BD00BFF80C0020D00C002054
:10470000A80C0020D80C0020180800201408002055
:10471000E40C0020E00C002004ED00E080B483B045
:1047200000AF044B1B687B607B6818460C37BD46A6
:1047300080BC7047D40C002080B586B000AF002349
:104740007B61514B1B68002B40F08E804F4B1B68E8
:1047500001333B614D4A3B6913603B69002B20D11B
:104760004B4B1B681B68002B0AD04FF0500383F3A0
:104770001188BFF36F8FBFF34F8F3B6000BFFEE721
:10478000434B1B68FB60434B1B68414A1360414A23
:10479000FB681360404B1B6801333F4A136000F015
:1047A0007DFA3E4B1B683A699A424ED3384B1B68E0
:1047B0001B68002B01D1012300E00023002B04D053
:1047C000364B4FF0FF321A603FE0314B1B68DB681D
:1047D000DB68BB60BB685B687B603A697B689A4258
:1047E00003D22E4A7B6813602FE0BB68043318465F
:1047F000FEF792FCBB689B6A002B04D0BB681833A1
:104800001846FEF789FCBB68DA6A254B1B689A429A
:1048100003D9BB68DB6A224A1360BB68DA6A1346B5
:104820009B0013449B001F4A1A44BB68043319467B
:104830001046FEF716FCBB68DA6A1B4B1B68DB6A86
:104840009A42B3D301237B61B0E7174B1B68DA6A46
:10485000144913469B0013449B000B441B68012B17
:1048600007D901237B6104E0104B1B6801330F4A19
:1048700013600F4B1B68002B01D001237B617B6908
:1048800018461837BD4680BDF80C0020D40C002017
:10489000A00C0020A40C0020E80C0020F00C00204C
:1048A000D80C00201808002014080020E00C00207C
:1048B000E40C002080B485B000AF2A4B1B68002BAD
:1048C00003D0294B01221A6046E0274B00221A60D0
:1048D000264B1B68FB6010E0FB68002B0AD14FF0F1
:1048E000500383F31188BFF36F8FBFF34F8F7B604B
:1048F00000BFFEE7FB68013BFB601D49FA681346F9
:104900009B0013449B000B441B68002BE4D0FA6807
:1049100013469B0013449B00154A1344BB60BB68BD
:104920005B685A68BB685A60BB685A68BB680833E2
:104930009A4204D1BB685B685A68BB685A60BB681E
:104940005B68DB680B4A1360084AFB681360094B1D
:104950001B685433084A136000BF1437BD4680BC3F
:10496000704700BFF80C0020E40C0020D80C002099
:1049700018080020140800201000002080B584B022
:1049800000AF786039607B68002B0AD14FF050038C
:1049900083F31188BFF36F8FBFF34F8FFB6000BFAE
:1049A000FEE7074B1B68183319467868FEF77CFB57
:1049B0000121386800F02AFB00BF1037BD4680BDDA
:1049C0001408002080B586B000AFF860B9607A6046
:1049D000FB68002B0AD14FF0500383F31188BFF31B
:1049E0006F8FBFF34F8F7B6100BFFEE70A4B1B68E1
:1049F00018331946F868FEF734FB7B68002B02D0A9
:104A00004FF0FF33BB607968B86800F0FFFA00BF71
:104A10001837BD4680BD00BF1408002080B586B0A1
:104A200000AF78607B68DB68DB683B613B69002B2B
:104A30000AD14FF0500383F31188BFF36F8FBFF398
:104A40004F8FFB6000BFFEE73B6918331846FEF747
:104A500063FB1E4B1B68002B1DD13B6904331846BA
:104A6000FEF75AFB3B69DA6A194B1B689A4203D975
:104A70003B69DB6A164A13603B69DA6A13469B009E
:104A800013449B00134A1A443B69043319461046E9
:104A9000FEF7E7FA05E03B69183319460E48FEF7C2
:104AA000E0FA3B69DA6A0D4B1B68DB6A9A4205D96A
:104AB00001237B610A4B01221A6001E000237B6124
:104AC0007B6918461837BD4680BD00BFF80C002032
:104AD000D80C002018080020A80C00201408002082
:104AE000E40C002080B483B000AF7860064B1A68F5
:104AF0007B681A60054B1A687B685A6000BF0C37E8
:104B0000BD4680BC704700BFE80C0020D40C0020DC
:104B100080B588B000AF786039607B68002B0AD11F
:104B20004FF0500383F31188BFF36F8FBFF34F8FA4
:104B30003B6100BFFEE73B68002B0AD14FF05003FA
:104B400083F31188BFF36F8FBFF34F8FFB6000BFFC
:104B5000FEE700F0B3FE1D4B1B68BB617B685B6822
:104B6000BA69D31A7B613B681B68B3F1FF3F02D17E
:104B70000023FB6123E07B681A68154B1B689A428F
:104B800007D07B685B68BA699A4202D30123FB6154
:104B900015E03B681B687A699A420BD23B681A6839
:104BA0007B69D21A3B681A607868FFF79BFF002385
:104BB000FB6104E03B6800221A600123FB6100F006
:104BC000ADFEFB6918462037BD4680BDD40C0020E1
:104BD000E80C002080B400AF034B01221A6000BF34
:104BE000BD4680BC704700BFE40C002080B582B099
:104BF00000AF786000F04CF8064B1B68012BF9D928
:104C0000054B4FF080521A60BFF34F8FBFF36F8F89
:104C1000F0E700BF1808002004ED00E080B582B086
:104C200000AF00237B600CE07A6813469B001344BE
:104C30009B00104A13441846FEF7E8F97B680133DD
:104C40007B607B68372BEFD90B48FEF7DFF90B4809
:104C5000FEF7DCF90A48FEF7D9F90A48FEF7D6F95B
:104C6000094B054A1A60094B044A1A6000BF08370D
:104C7000BD4680BD18080020780C00208C0C002058
:104C8000A80C0020BC0C0020A00C0020A40C0020CC
:104C900080B400AF00BFBD4680BC704780B483B015
:104CA00000AF0E4B1B681B68002B01D1012300E0F5
:104CB0000023002B04D00A4B4FF0FF321A6008E0AB
:104CC000064B1B68DB68DB687B607B685B68044ABB
:104CD000136000BF0C37BD4680BC7047A00C00209D
:104CE000F00C002080B483B000AF0B4B1B68002B8E
:104CF00002D101237B6008E0084B1B68002B02D126
:104D000002237B6001E000237B607B6818460C3740
:104D1000BD4680BC704700BFDC0C0020F80C0020B2
:104D200080B584B000AF78607B68BB600023FB6017
:104D30007B68002B56D0BB68DA6A2D4B1B68DB6A98
:104D40009A4246D2BB689B69002B06DB284B1B6846
:104D5000DB6AC3F13802BB689A61BB685969BB68FA
:104D6000DA6A13469B0013449B00224A134499427B
:104D700001D1012300E00023002B22D0BB680433C3
:104D80001846FEF7C9F91A4B1B68DA6ABB68DA6283
:104D9000BB68DA6A184B1B689A4203D9BB68DB6AA6
:104DA000154A1360BB68DA6A13469B0013449B00E4
:104DB000104A1A44BB68043319461046FEF751F9ED
:104DC00004E00B4B1B68DA6ABB68DA620123FB6004
:104DD00008E0BB68DA6C064B1B68DB6A9A4201D2BA
:104DE0000123FB60FB6818461037BD4680BD00BF3D
:104DF0001408002018080020D80C002080B586B0C8
:104E000000AF78607B683B6100237B617B68002B8F
:104E100056D02E4B1B683A699A420AD04FF0500385
:104E200083F31188BFF36F8FBFF34F8FFB6000BF19
:104E3000FEE73B691B6D002B0AD14FF0500383F353
:104E40001188BFF36F8FBFF34F8FBB6000BFFEE7CA
:104E50003B691B6D5A1E3B691A653B69DA6A3B69FF
:104E6000DB6C9A422CD03B691B6D002B28D13B692F
:104E700004331846FEF750F93B69DA6C3B69DA6295
:104E80003B69DB6AC3F138023B699A613B69DA6AC4
:104E90000F4B1B689A4203D93B69DB6A0C4A1360CB
:104EA0003B69DA6A13469B0013449B00094A1A4483
:104EB0003B69043319461046FEF7D3F801237B61A2
:104EC0007B6918461837BD4680BD00BF1408002016
:104ED000D80C00201808002080B588B000AF78609A
:104EE00039607B68BB6101237B617B68002B6FD0DD
:104EF000BB691B6D002B0AD14FF0500383F311885F
:104F0000BFF36F8FBFF34F8FFB6000BFFEE7BB693E
:104F1000DB6C3A689A4202D93B68FB6102E0BB69EC
:104F2000DB6CFB61BB69DB6AFA699A4250D0BB69F2
:104F30001B6D7A699A424BD1274B1B68BA699A421A
:104F40000AD14FF0500383F31188BFF36F8FBFF383
:104F50004F8FBB6000BFFEE7BB69DB6A3B61BB698B
:104F6000FA69DA62BB699B69002B04DBFB69C3F158
:104F70003802BB699A61BB6959693A6913469B005B
:104F800013449B00154A1344994201D1012300E0C8
:104F90000023002B1CD0BB6904331846FEF7BCF875
:104FA000BB69DA6A0E4B1B689A4203D9BB69DB6A9C
:104FB0000B4A1360BB69DA6A13469B0013449B00DB
:104FC000064A1A44BB69043319461046FEF749F8ED
:104FD00000BF2037BD4680BD1408002018080020FF
:104FE000D80C002080B400AF074B1B68002B04D006
:104FF000054B1B681A6D01321A65034B1B68184676
:10500000BD4680BC704700BF1408002080B584B046
:1050100000AF78603960214B1B68FB60204B1B6838
:1050200004331846FEF778F87B68B3F1FF3F0AD1E6
:105030003B68002B07D01A4B1B68043319461948EC
:10504000FEF70FF826E0FA687B681344BB60144B48
:105050001B68BA685A60BA68FB689A4209D2124B58
:105060001A680F4B1B68043319461046FEF71CF8EC
:1050700010E00E4B1A680A4B1B68043319461046A1
:10508000FEF712F80A4B1B68BA689A4202D2084A25
:10509000BB68136000BF1037BD4680BDD40C002034
:1050A00014080020BC0C0020A40C0020A00C002040
:1050B000F00C002080B58AB004AF00237B6100F0C3
:1050C000CBFA1C4B1B68002B21D00023FB60002374
:1050D000BB603A1D07F1080107F10C031846FDF704
:1050E0007BFF7968BB68FA68029201930223009300
:1050F00000230A4610491148FFF710F80346104AEA
:1051000013600F4B1B68002B01D001237B617B696F
:10511000002B0AD14FF0500383F31188BFF36F8F38
:10512000BFF34F8F3B6100BFFEE77B69184618371E
:10513000BD4680BD2C0D0020906000086152000823
:10514000300D002080B58AB000AFF860B9607A6099
:105150003B6000237B62FB68002B0AD14FF05003B9
:1051600083F31188BFF36F8FBFF34F8F3B6200BF94
:10517000FEE71A4B1B68002B2AD0BB683B617B689B
:105180007B61FB68BB61BB68052B18DCFFF7AAFDE0
:105190000346022B09D1114B186807F110010023B7
:1051A0003A6BFEF7DBF9786212E00C4B186807F1F6
:1051B000100100230022FEF7D1F9786208E0074BC6
:1051C000186807F1100100233A68FEF7C5FA786203
:1051D0007B6A18462837BD4680BD00BF2C0D0020D5
:1051E00080B588B002AF786039601C4B1B68DB6803
:1051F000DB687B617B6904331846FDF78DFF7B69B3
:10520000DB69012B22D17B699A697B68D1187B68A5
:105210003A68786900F0C8F80346002B16D00023DE
:10522000009300237A6800217869FFF78BFF3861CB
:105230003B69002B0AD14FF0500383F31188BFF371
:105240006F8FBFF34F8FFB6000BFFEE77B695B6A28
:105250007869984700BF1837BD4680BD240D0020EF
:1052600080B584B000AF786007F10803184600F0FD
:1052700057F8F860BB681946F86800F003F800F0CA
:10528000D5F8F1E780B584B000AF78603960FFF7FA
:1052900099F907F10803184600F066F8F860BB6852
:1052A000002B30D13B68002B0AD17A68FB689A4208
:1052B00006D8FFF795F9F9687868FFF791FF24E0C1
:1052C0003B68002B08D0134B1B681B68002B0CBFDE
:1052D00001230023DBB23B600F4B18687A68FB6840
:1052E000D31A3A681946FEF7E5FEFFF779F9034647
:1052F000002B0AD1094B4FF080521A60BFF34F8F39
:10530000BFF36F8F01E0FFF76BF900BF1037BD46A9
:1053100080BD00BF280D00202C0D002004ED00E012
:1053200080B485B000AF78600E4B1B681B68002B03
:105330000CBF01230023DBB21A467B681A607B682E
:105340001B68002B05D1074B1B68DB681B68FB60E3
:1053500001E00023FB60FB6818461437BD4680BCA3
:10536000704700BF240D002080B584B000AF786086
:10537000FFF7D4F9F8600B4B1B68FA689A4205D224
:1053800000F008F97B6801221A6002E07B680022C5
:105390001A60044AFB681360FB6818461037BD4664
:1053A00080BD00BF340D002080B586B000AFF8602E
:1053B000B9607A603B6000237B61FB68BA685A6021
:1053C000FB68FA681A61BA687B689A4212D87A68F0
:1053D0003B68D21AFB689B699A4202D301237B6126
:1053E0001BE0104B1A68FB68043319461046FDF7A2
:1053F0005BFE12E07A683B689A4206D2BA683B6864
:105400009A4202D301237B6107E0074B1A68FB68CD
:10541000043319461046FDF747FE7B6918461837D6
:10542000BD4680BD280D0020240D002080B58EB023
:1054300002AF9DE07B68002B18DA3B1D0433FB6252
:10544000FB6A002B0AD14FF0500383F31188BFF39E
:105450006F8FBFF34F8FFB6100BFFEE7FB6A1B68D6
:10546000FA6A5068FA6A9268114698477B68002B7E
:105470007DDBFB68BB62BB6A5B69002B04D0BB6A47
:1054800004331846FDF748FE3B461846FFF76CFF0D
:1054900078627B68092B6BD801A252F823F000BF19
:1054A000C9540008C9540008C954000871550008BF
:1054B000255500085D550008C9540008C954000866
:1054C0007155000825550008BA68BB6A9B69D11858
:1054D000BB687A6AB86AFFF767FF0346002B47D0BC
:1054E000BB6A5B6AB86A9847BB6ADB69012B3FD12C
:1054F000BA68BB6A9B691A44002300930023002109
:10550000B86AFFF71FFE38623B6A002B30D14FF0BC
:10551000500383F31188BFF36F8FBFF34F8FBB61CD
:1055200000BFFEE7BA68BB6A9A61BB6A9B69002B41
:105530000AD14FF0500383F31188BFF36F8FBFF38D
:105540004F8F7B6100BFFEE7BB6A9A697B6AD11807
:105550007B6A7A6AB86AFFF727FF09E0BB6A93F8AB
:105560002C30002B04D1B86A00F06CFB00E000BFC7
:10557000074B1B68391D00221846FEF713FA034635
:10558000002B7FF457AF00BF00BF3037BD4680BD52
:105590002C0D002080B588B002AF45E02C4B1B6875
:1055A000DB681B683B612A4B1B68DB68DB68FB60C0
:1055B000FB6804331846FDF7AFFDFB685B6AF868CB
:1055C0009847FB68DB69012B2ED1FB689B693A6920
:1055D0001344BB60BA683B699A420ED9FB68BA684B
:1055E0005A60FB68FA681A61194B1A68FB68043341
:1055F00019461046FDF758FD16E0002300930023DE
:105600003A690021F868FFF79DFD78607B68002B00
:105610000AD14FF0500383F31188BFF36F8FBFF3AC
:105620004F8F3B6000BFFEE7094B1B681B68002BD8
:10563000B4D1074B1B687B61064B1B68044A13609F
:10564000044A7B69136000BF1837BD4680BD00BFA8
:10565000240D0020280D002080B582B002AF00F09C
:105660002DF9154B1B68002B20D11448FDF7CEFCFB
:105670001348FDF7CBFC134B104A1A60124B104A2B
:105680001A6000230093114B114A10210A20FDF7E4
:10569000D5FD0346084A1360074B1B68002B05D055
:1056A000054B1B680B491846FEF7B2FC00F036F9B3
:1056B00000BFBD4680BD00BF2C0D0020FC0C0020AB
:1056C000100D0020240D0020280D0020D80D0020F2
:1056D000380D00209860000880B485B000AFF860F5
:1056E000B9607A60FB68043BFB60FB684FF0807236
:1056F0001A60FB68043BFB60BB6823F00102FB6897
:105700001A60FB68043BFB60084AFB681A60FB6890
:10571000143BFB607A68FB681A60FB68203BFB6007
:10572000FB6818461437BD4680BC704731570008E7
:1057300080B485B000AF00237B60124B1B68B3F1CF
:10574000FF3F0AD04FF0500383F31188BFF36F8FF0
:10575000BFF34F8FFB6000BFFEE74FF0500383F3B2
:105760001188BFF36F8FBFF34F8FBB6000BF00BFC7
:105770007B68002BFCD000BF00BF1437BD4680BC47
:10578000704700BF0C000020000000000000000077
:10579000074B19680868B0E8F00F80F30988BFF379
:1057A0006F8F4FF0000080F311884EF00D0E7047A0
:1057B0001408002000BF00BF06480068006880F39E
:1057C000088862B661B6BFF34F8FBFF36F8F00DFFB
:1057D00000BF00BF08ED00E080B584B000AF324BE1
:1057E000FB60FB681B78DBB27B60FB68FF221A70F2
:1057F000FB681B78DBB2FB70FB78DBB203F0500375
:10580000DAB22A4B1A702A4B07221A6009E0284B99
:105810001B68013B264A1360FB78DBB25B00DBB2FE
:10582000FB70FB78DBB203F08003802BEFD0204BC2
:105830001B68C3F10703042B0AD04FF0500383F316
:105840001188BFF36F8FBFF34F8FBB6000BFFEE7C0
:10585000174B1B681B02164A1360154B1B6803F499
:10586000E063134A13607B68DAB2FB681A70114B6D
:105870001B68104A43F4700313600E4B1B680D4AFB
:1058800043F07043136000F0B9F80B4B00221A602C
:10589000FFF792FFFFF70EF8FFF74AFF00231846C5
:1058A0001037BD4680BD00BF00E400E0280E002098
:1058B0002C0E002020ED00E00C00002080B483B00E
:1058C00000AF4FF0500383F31188BFF36F8FBFF326
:1058D0004F8F7B6000BF0F4B1B6801330D4A136075
:1058E0000C4B1B68012B0FD10B4B1B68DBB2002B41
:1058F0000AD04FF0500383F31188BFF36F8FBFF3CB
:105900004F8F3B6000BFFEE700BF0C37BD4680BC39
:10591000704700BF0C00002004ED00E080B483B0AD
:1059200000AF114B1B68002B0AD14FF0500383F3DB
:105930001188BFF36F8FBFF34F8F7B6000BFFEE70F
:10594000094B1B68013B084A1360074B1B68002B7F
:1059500005D100233B603B6883F3118800BF00BF83
:105960000C37BD4680BC70470C00002000000000D2
:10597000EFF30980BFF36F8F0D4B1A6820E9F00F2A
:1059800010602DE908404FF0500080F31188FEF7B9
:1059900091FF4FF0000080F31188BDE808401968BE
:1059A0000868B0E8F00F80F30988BFF36F8F704785
:1059B0001408002000BF00BF80B582B000AF4FF0D8
:1059C000500383F31188BFF36F8FBFF34F8F7B605A
:1059D00000BFFEF7B1FE0346002B03D0064B4FF08D
:1059E00080521A6000233B603B6883F3118800BF3C
:1059F00000BF0837BD4680BD04ED00E080B400AFB5
:105A00000A4B00221A600A4B00221A60094B1B68DD
:105A1000094AA2FB03239B09084A013B1360034B7D
:105A200007221A6000BFBD4680BC704710E000E04E
:105A300018E000E000000020D34D621014E000E008
:105A400080B485B000AFEFF30583FB60FB680F2BDC
:105A500014D9164AFB6813441B78FB72144B1B784D
:105A6000FA7A9A420AD24FF0500383F31188BFF3B7
:105A70006F8FBFF34F8F7B6000BFFEE70D4B1B683E
:105A800003F4E0620C4B1B689A420AD94FF05003B2
:105A900083F31188BFF36F8FBFF34F8F3B6000BF5D
:105AA000FEE700BF1437BD4680BC7047F0E300E05E
:105AB000280E00200CED00E02C0E002080B58AB0EE
:105AC00000AF78600023FB61FEF77CFD584B1B683C
:105AD000002B01D100F010F9564B1A687B68134077
